{
	"2-Calculadora.sol": {
		"Calculator": {
			"abi": [
				{
					"inputs": [
						{
							"internalType": "uint256",
							"name": "a",
							"type": "uint256"
						},
						{
							"internalType": "uint256",
							"name": "b",
							"type": "uint256"
						}
					],
					"name": "add",
					"outputs": [],
					"stateMutability": "nonpayable",
					"type": "function"
				},
				{
					"inputs": [
						{
							"internalType": "uint256",
							"name": "a",
							"type": "uint256"
						},
						{
							"internalType": "uint256",
							"name": "b",
							"type": "uint256"
						}
					],
					"name": "div",
					"outputs": [],
					"stateMutability": "nonpayable",
					"type": "function"
				},
				{
					"inputs": [],
					"name": "getResult",
					"outputs": [
						{
							"internalType": "uint256",
							"name": "x",
							"type": "uint256"
						}
					],
					"stateMutability": "view",
					"type": "function"
				},
				{
					"inputs": [
						{
							"internalType": "uint256",
							"name": "a",
							"type": "uint256"
						},
						{
							"internalType": "uint256",
							"name": "b",
							"type": "uint256"
						}
					],
					"name": "mul",
					"outputs": [],
					"stateMutability": "nonpayable",
					"type": "function"
				},
				{
					"inputs": [
						{
							"internalType": "uint256",
							"name": "a",
							"type": "uint256"
						},
						{
							"internalType": "uint256",
							"name": "b",
							"type": "uint256"
						}
					],
					"name": "sub",
					"outputs": [],
					"stateMutability": "nonpayable",
					"type": "function"
				}
			],
			"devdoc": {
				"kind": "dev",
				"methods": {},
				"version": 1
			},
			"evm": {
				"assembly": "    /* \"2-Calculadora.sol\":25:486  contract Calculator {... */\n  mstore(0x40, 0x80)\n  callvalue\n  dup1\n  iszero\n  tag_1\n  jumpi\n  0x00\n  dup1\n  revert\ntag_1:\n  pop\n  dataSize(sub_0)\n  dup1\n  dataOffset(sub_0)\n  0x00\n  codecopy\n  0x00\n  return\nstop\n\nsub_0: assembly {\n        /* \"2-Calculadora.sol\":25:486  contract Calculator {... */\n      mstore(0x40, 0x80)\n      callvalue\n      dup1\n      iszero\n      tag_1\n      jumpi\n      0x00\n      dup1\n      revert\n    tag_1:\n      pop\n      jumpi(tag_2, lt(calldatasize, 0x04))\n      shr(0xe0, calldataload(0x00))\n      dup1\n      0x771602f7\n      eq\n      tag_3\n      jumpi\n      dup1\n      0xa391c15b\n      eq\n      tag_4\n      jumpi\n      dup1\n      0xb67d77c5\n      eq\n      tag_5\n      jumpi\n      dup1\n      0xc8a4ac9c\n      eq\n      tag_6\n      jumpi\n      dup1\n      0xde292789\n      eq\n      tag_7\n      jumpi\n    tag_2:\n      0x00\n      dup1\n      revert\n        /* \"2-Calculadora.sol\":64:126  function add(uint a, uint b) public {... */\n    tag_3:\n      tag_8\n      0x04\n      dup1\n      calldatasize\n      sub\n      dup2\n      add\n      swap1\n      tag_9\n      swap2\n      swap1\n      tag_10\n      jump\t// in\n    tag_9:\n      tag_11\n      jump\t// in\n    tag_8:\n      stop\n        /* \"2-Calculadora.sol\":268:403  function div(uint a, uint b) public {... */\n    tag_4:\n      tag_12\n      0x04\n      dup1\n      calldatasize\n      sub\n      dup2\n      add\n      swap1\n      tag_13\n      swap2\n      swap1\n      tag_10\n      jump\t// in\n    tag_13:\n      tag_14\n      jump\t// in\n    tag_12:\n      stop\n        /* \"2-Calculadora.sol\":132:194  function sub(uint a, uint b) public {... */\n    tag_5:\n      tag_15\n      0x04\n      dup1\n      calldatasize\n      sub\n      dup2\n      add\n      swap1\n      tag_16\n      swap2\n      swap1\n      tag_10\n      jump\t// in\n    tag_16:\n      tag_17\n      jump\t// in\n    tag_15:\n      stop\n        /* \"2-Calculadora.sol\":200:262  function mul(uint a, uint b) public {... */\n    tag_6:\n      tag_18\n      0x04\n      dup1\n      calldatasize\n      sub\n      dup2\n      add\n      swap1\n      tag_19\n      swap2\n      swap1\n      tag_10\n      jump\t// in\n    tag_19:\n      tag_20\n      jump\t// in\n    tag_18:\n      stop\n        /* \"2-Calculadora.sol\":409:484  function getResult() public view returns (uint x) {... */\n    tag_7:\n      tag_21\n      tag_22\n      jump\t// in\n    tag_21:\n      mload(0x40)\n      tag_23\n      swap2\n      swap1\n      tag_24\n      jump\t// in\n    tag_23:\n      mload(0x40)\n      dup1\n      swap2\n      sub\n      swap1\n      return\n        /* \"2-Calculadora.sol\":64:126  function add(uint a, uint b) public {... */\n    tag_11:\n        /* \"2-Calculadora.sol\":118:119  b */\n      dup1\n        /* \"2-Calculadora.sol\":114:115  a */\n      dup3\n        /* \"2-Calculadora.sol\":114:119  a + b */\n      tag_26\n      swap2\n      swap1\n      tag_27\n      jump\t// in\n    tag_26:\n        /* \"2-Calculadora.sol\":110:111  c */\n      0x00\n        /* \"2-Calculadora.sol\":110:119  c = a + b */\n      dup2\n      swap1\n      sstore\n      pop\n        /* \"2-Calculadora.sol\":64:126  function add(uint a, uint b) public {... */\n      pop\n      pop\n      jump\t// out\n        /* \"2-Calculadora.sol\":268:403  function div(uint a, uint b) public {... */\n    tag_14:\n        /* \"2-Calculadora.sol\":326:327  0 */\n      0x00\n        /* \"2-Calculadora.sol\":322:323  b */\n      dup2\n        /* \"2-Calculadora.sol\":322:327  b > 0 */\n      gt\n        /* \"2-Calculadora.sol\":314:376  require(b > 0, \"The second parameter should be larger than 0\") */\n      tag_29\n      jumpi\n      mload(0x40)\n      0x08c379a000000000000000000000000000000000000000000000000000000000\n      dup2\n      mstore\n      0x04\n      add\n      tag_30\n      swap1\n      tag_31\n      jump\t// in\n    tag_30:\n      mload(0x40)\n      dup1\n      swap2\n      sub\n      swap1\n      revert\n    tag_29:\n        /* \"2-Calculadora.sol\":395:396  b */\n      dup1\n        /* \"2-Calculadora.sol\":391:392  a */\n      dup3\n        /* \"2-Calculadora.sol\":391:396  a / b */\n      tag_32\n      swap2\n      swap1\n      tag_33\n      jump\t// in\n    tag_32:\n        /* \"2-Calculadora.sol\":387:388  c */\n      0x00\n        /* \"2-Calculadora.sol\":387:396  c = a / b */\n      dup2\n      swap1\n      sstore\n      pop\n        /* \"2-Calculadora.sol\":268:403  function div(uint a, uint b) public {... */\n      pop\n      pop\n      jump\t// out\n        /* \"2-Calculadora.sol\":132:194  function sub(uint a, uint b) public {... */\n    tag_17:\n        /* \"2-Calculadora.sol\":186:187  b */\n      dup1\n        /* \"2-Calculadora.sol\":182:183  a */\n      dup3\n        /* \"2-Calculadora.sol\":182:187  a - b */\n      tag_35\n      swap2\n      swap1\n      tag_36\n      jump\t// in\n    tag_35:\n        /* \"2-Calculadora.sol\":178:179  c */\n      0x00\n        /* \"2-Calculadora.sol\":178:187  c = a - b */\n      dup2\n      swap1\n      sstore\n      pop\n        /* \"2-Calculadora.sol\":132:194  function sub(uint a, uint b) public {... */\n      pop\n      pop\n      jump\t// out\n        /* \"2-Calculadora.sol\":200:262  function mul(uint a, uint b) public {... */\n    tag_20:\n        /* \"2-Calculadora.sol\":254:255  b */\n      dup1\n        /* \"2-Calculadora.sol\":250:251  a */\n      dup3\n        /* \"2-Calculadora.sol\":250:255  a * b */\n      tag_38\n      swap2\n      swap1\n      tag_39\n      jump\t// in\n    tag_38:\n        /* \"2-Calculadora.sol\":246:247  c */\n      0x00\n        /* \"2-Calculadora.sol\":246:255  c = a * b */\n      dup2\n      swap1\n      sstore\n      pop\n        /* \"2-Calculadora.sol\":200:262  function mul(uint a, uint b) public {... */\n      pop\n      pop\n      jump\t// out\n        /* \"2-Calculadora.sol\":409:484  function getResult() public view returns (uint x) {... */\n    tag_22:\n        /* \"2-Calculadora.sol\":451:457  uint x */\n      0x00\n        /* \"2-Calculadora.sol\":476:477  c */\n      dup1\n      sload\n        /* \"2-Calculadora.sol\":469:477  return c */\n      swap1\n      pop\n        /* \"2-Calculadora.sol\":409:484  function getResult() public view returns (uint x) {... */\n      swap1\n      jump\t// out\n        /* \"#utility.yul\":88:205   */\n    tag_42:\n        /* \"#utility.yul\":197:198   */\n      0x00\n        /* \"#utility.yul\":194:195   */\n      dup1\n        /* \"#utility.yul\":187:199   */\n      revert\n        /* \"#utility.yul\":334:411   */\n    tag_44:\n        /* \"#utility.yul\":371:378   */\n      0x00\n        /* \"#utility.yul\":400:405   */\n      dup2\n        /* \"#utility.yul\":389:405   */\n      swap1\n      pop\n        /* \"#utility.yul\":334:411   */\n      swap2\n      swap1\n      pop\n      jump\t// out\n        /* \"#utility.yul\":417:539   */\n    tag_45:\n        /* \"#utility.yul\":490:514   */\n      tag_59\n        /* \"#utility.yul\":508:513   */\n      dup2\n        /* \"#utility.yul\":490:514   */\n      tag_44\n      jump\t// in\n    tag_59:\n        /* \"#utility.yul\":483:488   */\n      dup2\n        /* \"#utility.yul\":480:515   */\n      eq\n        /* \"#utility.yul\":470:533   */\n      tag_60\n      jumpi\n        /* \"#utility.yul\":529:530   */\n      0x00\n        /* \"#utility.yul\":526:527   */\n      dup1\n        /* \"#utility.yul\":519:531   */\n      revert\n        /* \"#utility.yul\":470:533   */\n    tag_60:\n        /* \"#utility.yul\":417:539   */\n      pop\n      jump\t// out\n        /* \"#utility.yul\":545:684   */\n    tag_46:\n        /* \"#utility.yul\":591:596   */\n      0x00\n        /* \"#utility.yul\":629:635   */\n      dup2\n        /* \"#utility.yul\":616:636   */\n      calldataload\n        /* \"#utility.yul\":607:636   */\n      swap1\n      pop\n        /* \"#utility.yul\":645:678   */\n      tag_62\n        /* \"#utility.yul\":672:677   */\n      dup2\n        /* \"#utility.yul\":645:678   */\n      tag_45\n      jump\t// in\n    tag_62:\n        /* \"#utility.yul\":545:684   */\n      swap3\n      swap2\n      pop\n      pop\n      jump\t// out\n        /* \"#utility.yul\":690:1164   */\n    tag_10:\n        /* \"#utility.yul\":758:764   */\n      0x00\n        /* \"#utility.yul\":766:772   */\n      dup1\n        /* \"#utility.yul\":815:817   */\n      0x40\n        /* \"#utility.yul\":803:812   */\n      dup4\n        /* \"#utility.yul\":794:801   */\n      dup6\n        /* \"#utility.yul\":790:813   */\n      sub\n        /* \"#utility.yul\":786:818   */\n      slt\n        /* \"#utility.yul\":783:902   */\n      iszero\n      tag_64\n      jumpi\n        /* \"#utility.yul\":821:900   */\n      tag_65\n      tag_42\n      jump\t// in\n    tag_65:\n        /* \"#utility.yul\":783:902   */\n    tag_64:\n        /* \"#utility.yul\":941:942   */\n      0x00\n        /* \"#utility.yul\":966:1019   */\n      tag_66\n        /* \"#utility.yul\":1011:1018   */\n      dup6\n        /* \"#utility.yul\":1002:1008   */\n      dup3\n        /* \"#utility.yul\":991:1000   */\n      dup7\n        /* \"#utility.yul\":987:1009   */\n      add\n        /* \"#utility.yul\":966:1019   */\n      tag_46\n      jump\t// in\n    tag_66:\n        /* \"#utility.yul\":956:1019   */\n      swap3\n      pop\n        /* \"#utility.yul\":912:1029   */\n      pop\n        /* \"#utility.yul\":1068:1070   */\n      0x20\n        /* \"#utility.yul\":1094:1147   */\n      tag_67\n        /* \"#utility.yul\":1139:1146   */\n      dup6\n        /* \"#utility.yul\":1130:1136   */\n      dup3\n        /* \"#utility.yul\":1119:1128   */\n      dup7\n        /* \"#utility.yul\":1115:1137   */\n      add\n        /* \"#utility.yul\":1094:1147   */\n      tag_46\n      jump\t// in\n    tag_67:\n        /* \"#utility.yul\":1084:1147   */\n      swap2\n      pop\n        /* \"#utility.yul\":1039:1157   */\n      pop\n        /* \"#utility.yul\":690:1164   */\n      swap3\n      pop\n      swap3\n      swap1\n      pop\n      jump\t// out\n        /* \"#utility.yul\":1170:1288   */\n    tag_47:\n        /* \"#utility.yul\":1257:1281   */\n      tag_69\n        /* \"#utility.yul\":1275:1280   */\n      dup2\n        /* \"#utility.yul\":1257:1281   */\n      tag_44\n      jump\t// in\n    tag_69:\n        /* \"#utility.yul\":1252:1255   */\n      dup3\n        /* \"#utility.yul\":1245:1282   */\n      mstore\n        /* \"#utility.yul\":1170:1288   */\n      pop\n      pop\n      jump\t// out\n        /* \"#utility.yul\":1294:1516   */\n    tag_24:\n        /* \"#utility.yul\":1387:1391   */\n      0x00\n        /* \"#utility.yul\":1425:1427   */\n      0x20\n        /* \"#utility.yul\":1414:1423   */\n      dup3\n        /* \"#utility.yul\":1410:1428   */\n      add\n        /* \"#utility.yul\":1402:1428   */\n      swap1\n      pop\n        /* \"#utility.yul\":1438:1509   */\n      tag_71\n        /* \"#utility.yul\":1506:1507   */\n      0x00\n        /* \"#utility.yul\":1495:1504   */\n      dup4\n        /* \"#utility.yul\":1491:1508   */\n      add\n        /* \"#utility.yul\":1482:1488   */\n      dup5\n        /* \"#utility.yul\":1438:1509   */\n      tag_47\n      jump\t// in\n    tag_71:\n        /* \"#utility.yul\":1294:1516   */\n      swap3\n      swap2\n      pop\n      pop\n      jump\t// out\n        /* \"#utility.yul\":1522:1702   */\n    tag_48:\n        /* \"#utility.yul\":1570:1647   */\n      0x4e487b7100000000000000000000000000000000000000000000000000000000\n        /* \"#utility.yul\":1567:1568   */\n      0x00\n        /* \"#utility.yul\":1560:1648   */\n      mstore\n        /* \"#utility.yul\":1667:1671   */\n      0x11\n        /* \"#utility.yul\":1664:1665   */\n      0x04\n        /* \"#utility.yul\":1657:1672   */\n      mstore\n        /* \"#utility.yul\":1691:1695   */\n      0x24\n        /* \"#utility.yul\":1688:1689   */\n      0x00\n        /* \"#utility.yul\":1681:1696   */\n      revert\n        /* \"#utility.yul\":1708:1899   */\n    tag_27:\n        /* \"#utility.yul\":1748:1751   */\n      0x00\n        /* \"#utility.yul\":1767:1787   */\n      tag_74\n        /* \"#utility.yul\":1785:1786   */\n      dup3\n        /* \"#utility.yul\":1767:1787   */\n      tag_44\n      jump\t// in\n    tag_74:\n        /* \"#utility.yul\":1762:1787   */\n      swap2\n      pop\n        /* \"#utility.yul\":1801:1821   */\n      tag_75\n        /* \"#utility.yul\":1819:1820   */\n      dup4\n        /* \"#utility.yul\":1801:1821   */\n      tag_44\n      jump\t// in\n    tag_75:\n        /* \"#utility.yul\":1796:1821   */\n      swap3\n      pop\n        /* \"#utility.yul\":1844:1845   */\n      dup3\n        /* \"#utility.yul\":1841:1842   */\n      dup3\n        /* \"#utility.yul\":1837:1846   */\n      add\n        /* \"#utility.yul\":1830:1846   */\n      swap1\n      pop\n        /* \"#utility.yul\":1865:1868   */\n      dup1\n        /* \"#utility.yul\":1862:1863   */\n      dup3\n        /* \"#utility.yul\":1859:1869   */\n      gt\n        /* \"#utility.yul\":1856:1892   */\n      iszero\n      tag_76\n      jumpi\n        /* \"#utility.yul\":1872:1890   */\n      tag_77\n      tag_48\n      jump\t// in\n    tag_77:\n        /* \"#utility.yul\":1856:1892   */\n    tag_76:\n        /* \"#utility.yul\":1708:1899   */\n      swap3\n      swap2\n      pop\n      pop\n      jump\t// out\n        /* \"#utility.yul\":1905:2074   */\n    tag_49:\n        /* \"#utility.yul\":1989:2000   */\n      0x00\n        /* \"#utility.yul\":2023:2029   */\n      dup3\n        /* \"#utility.yul\":2018:2021   */\n      dup3\n        /* \"#utility.yul\":2011:2030   */\n      mstore\n        /* \"#utility.yul\":2063:2067   */\n      0x20\n        /* \"#utility.yul\":2058:2061   */\n      dup3\n        /* \"#utility.yul\":2054:2068   */\n      add\n        /* \"#utility.yul\":2039:2068   */\n      swap1\n      pop\n        /* \"#utility.yul\":1905:2074   */\n      swap3\n      swap2\n      pop\n      pop\n      jump\t// out\n        /* \"#utility.yul\":2080:2311   */\n    tag_50:\n        /* \"#utility.yul\":2220:2254   */\n      0x546865207365636f6e6420706172616d657465722073686f756c64206265206c\n        /* \"#utility.yul\":2216:2217   */\n      0x00\n        /* \"#utility.yul\":2208:2214   */\n      dup3\n        /* \"#utility.yul\":2204:2218   */\n      add\n        /* \"#utility.yul\":2197:2255   */\n      mstore\n        /* \"#utility.yul\":2289:2303   */\n      0x6172676572207468616e20300000000000000000000000000000000000000000\n        /* \"#utility.yul\":2284:2286   */\n      0x20\n        /* \"#utility.yul\":2276:2282   */\n      dup3\n        /* \"#utility.yul\":2272:2287   */\n      add\n        /* \"#utility.yul\":2265:2304   */\n      mstore\n        /* \"#utility.yul\":2080:2311   */\n      pop\n      jump\t// out\n        /* \"#utility.yul\":2317:2683   */\n    tag_51:\n        /* \"#utility.yul\":2459:2462   */\n      0x00\n        /* \"#utility.yul\":2480:2547   */\n      tag_81\n        /* \"#utility.yul\":2544:2546   */\n      0x2c\n        /* \"#utility.yul\":2539:2542   */\n      dup4\n        /* \"#utility.yul\":2480:2547   */\n      tag_49\n      jump\t// in\n    tag_81:\n        /* \"#utility.yul\":2473:2547   */\n      swap2\n      pop\n        /* \"#utility.yul\":2556:2649   */\n      tag_82\n        /* \"#utility.yul\":2645:2648   */\n      dup3\n        /* \"#utility.yul\":2556:2649   */\n      tag_50\n      jump\t// in\n    tag_82:\n        /* \"#utility.yul\":2674:2676   */\n      0x40\n        /* \"#utility.yul\":2669:2672   */\n      dup3\n        /* \"#utility.yul\":2665:2677   */\n      add\n        /* \"#utility.yul\":2658:2677   */\n      swap1\n      pop\n        /* \"#utility.yul\":2317:2683   */\n      swap2\n      swap1\n      pop\n      jump\t// out\n        /* \"#utility.yul\":2689:3108   */\n    tag_31:\n        /* \"#utility.yul\":2855:2859   */\n      0x00\n        /* \"#utility.yul\":2893:2895   */\n      0x20\n        /* \"#utility.yul\":2882:2891   */\n      dup3\n        /* \"#utility.yul\":2878:2896   */\n      add\n        /* \"#utility.yul\":2870:2896   */\n      swap1\n      pop\n        /* \"#utility.yul\":2942:2951   */\n      dup2\n        /* \"#utility.yul\":2936:2940   */\n      dup2\n        /* \"#utility.yul\":2932:2952   */\n      sub\n        /* \"#utility.yul\":2928:2929   */\n      0x00\n        /* \"#utility.yul\":2917:2926   */\n      dup4\n        /* \"#utility.yul\":2913:2930   */\n      add\n        /* \"#utility.yul\":2906:2953   */\n      mstore\n        /* \"#utility.yul\":2970:3101   */\n      tag_84\n        /* \"#utility.yul\":3096:3100   */\n      dup2\n        /* \"#utility.yul\":2970:3101   */\n      tag_51\n      jump\t// in\n    tag_84:\n        /* \"#utility.yul\":2962:3101   */\n      swap1\n      pop\n        /* \"#utility.yul\":2689:3108   */\n      swap2\n      swap1\n      pop\n      jump\t// out\n        /* \"#utility.yul\":3114:3294   */\n    tag_52:\n        /* \"#utility.yul\":3162:3239   */\n      0x4e487b7100000000000000000000000000000000000000000000000000000000\n        /* \"#utility.yul\":3159:3160   */\n      0x00\n        /* \"#utility.yul\":3152:3240   */\n      mstore\n        /* \"#utility.yul\":3259:3263   */\n      0x12\n        /* \"#utility.yul\":3256:3257   */\n      0x04\n        /* \"#utility.yul\":3249:3264   */\n      mstore\n        /* \"#utility.yul\":3283:3287   */\n      0x24\n        /* \"#utility.yul\":3280:3281   */\n      0x00\n        /* \"#utility.yul\":3273:3288   */\n      revert\n        /* \"#utility.yul\":3300:3485   */\n    tag_33:\n        /* \"#utility.yul\":3340:3341   */\n      0x00\n        /* \"#utility.yul\":3357:3377   */\n      tag_87\n        /* \"#utility.yul\":3375:3376   */\n      dup3\n        /* \"#utility.yul\":3357:3377   */\n      tag_44\n      jump\t// in\n    tag_87:\n        /* \"#utility.yul\":3352:3377   */\n      swap2\n      pop\n        /* \"#utility.yul\":3391:3411   */\n      tag_88\n        /* \"#utility.yul\":3409:3410   */\n      dup4\n        /* \"#utility.yul\":3391:3411   */\n      tag_44\n      jump\t// in\n    tag_88:\n        /* \"#utility.yul\":3386:3411   */\n      swap3\n      pop\n        /* \"#utility.yul\":3430:3431   */\n      dup3\n        /* \"#utility.yul\":3420:3455   */\n      tag_89\n      jumpi\n        /* \"#utility.yul\":3435:3453   */\n      tag_90\n      tag_52\n      jump\t// in\n    tag_90:\n        /* \"#utility.yul\":3420:3455   */\n    tag_89:\n        /* \"#utility.yul\":3477:3478   */\n      dup3\n        /* \"#utility.yul\":3474:3475   */\n      dup3\n        /* \"#utility.yul\":3470:3479   */\n      div\n        /* \"#utility.yul\":3465:3479   */\n      swap1\n      pop\n        /* \"#utility.yul\":3300:3485   */\n      swap3\n      swap2\n      pop\n      pop\n      jump\t// out\n        /* \"#utility.yul\":3491:3685   */\n    tag_36:\n        /* \"#utility.yul\":3531:3535   */\n      0x00\n        /* \"#utility.yul\":3551:3571   */\n      tag_92\n        /* \"#utility.yul\":3569:3570   */\n      dup3\n        /* \"#utility.yul\":3551:3571   */\n      tag_44\n      jump\t// in\n    tag_92:\n        /* \"#utility.yul\":3546:3571   */\n      swap2\n      pop\n        /* \"#utility.yul\":3585:3605   */\n      tag_93\n        /* \"#utility.yul\":3603:3604   */\n      dup4\n        /* \"#utility.yul\":3585:3605   */\n      tag_44\n      jump\t// in\n    tag_93:\n        /* \"#utility.yul\":3580:3605   */\n      swap3\n      pop\n        /* \"#utility.yul\":3629:3630   */\n      dup3\n        /* \"#utility.yul\":3626:3627   */\n      dup3\n        /* \"#utility.yul\":3622:3631   */\n      sub\n        /* \"#utility.yul\":3614:3631   */\n      swap1\n      pop\n        /* \"#utility.yul\":3653:3654   */\n      dup2\n        /* \"#utility.yul\":3647:3651   */\n      dup2\n        /* \"#utility.yul\":3644:3655   */\n      gt\n        /* \"#utility.yul\":3641:3678   */\n      iszero\n      tag_94\n      jumpi\n        /* \"#utility.yul\":3658:3676   */\n      tag_95\n      tag_48\n      jump\t// in\n    tag_95:\n        /* \"#utility.yul\":3641:3678   */\n    tag_94:\n        /* \"#utility.yul\":3491:3685   */\n      swap3\n      swap2\n      pop\n      pop\n      jump\t// out\n        /* \"#utility.yul\":3691:4101   */\n    tag_39:\n        /* \"#utility.yul\":3731:3738   */\n      0x00\n        /* \"#utility.yul\":3754:3774   */\n      tag_97\n        /* \"#utility.yul\":3772:3773   */\n      dup3\n        /* \"#utility.yul\":3754:3774   */\n      tag_44\n      jump\t// in\n    tag_97:\n        /* \"#utility.yul\":3749:3774   */\n      swap2\n      pop\n        /* \"#utility.yul\":3788:3808   */\n      tag_98\n        /* \"#utility.yul\":3806:3807   */\n      dup4\n        /* \"#utility.yul\":3788:3808   */\n      tag_44\n      jump\t// in\n    tag_98:\n        /* \"#utility.yul\":3783:3808   */\n      swap3\n      pop\n        /* \"#utility.yul\":3843:3844   */\n      dup3\n        /* \"#utility.yul\":3840:3841   */\n      dup3\n        /* \"#utility.yul\":3836:3845   */\n      mul\n        /* \"#utility.yul\":3865:3895   */\n      tag_99\n        /* \"#utility.yul\":3883:3894   */\n      dup2\n        /* \"#utility.yul\":3865:3895   */\n      tag_44\n      jump\t// in\n    tag_99:\n        /* \"#utility.yul\":3854:3895   */\n      swap2\n      pop\n        /* \"#utility.yul\":4044:4045   */\n      dup3\n        /* \"#utility.yul\":4035:4042   */\n      dup3\n        /* \"#utility.yul\":4031:4046   */\n      div\n        /* \"#utility.yul\":4028:4029   */\n      dup5\n        /* \"#utility.yul\":4025:4047   */\n      eq\n        /* \"#utility.yul\":4005:4006   */\n      dup4\n        /* \"#utility.yul\":3998:4007   */\n      iszero\n        /* \"#utility.yul\":3978:4061   */\n      or\n        /* \"#utility.yul\":3955:4094   */\n      tag_100\n      jumpi\n        /* \"#utility.yul\":4074:4092   */\n      tag_101\n      tag_48\n      jump\t// in\n    tag_101:\n        /* \"#utility.yul\":3955:4094   */\n    tag_100:\n        /* \"#utility.yul\":3739:4101   */\n      pop\n        /* \"#utility.yul\":3691:4101   */\n      swap3\n      swap2\n      pop\n      pop\n      jump\t// out\n\n    auxdata: 0xa26469706673582212201169939c28b74deb01760ab34067e920e989ff737a5d5fe0d4b120f536ba52a464736f6c63430008130033\n}\n",
				"bytecode": {
					"linkReferences": {},
					"object": "608060405234801561001057600080fd5b50610445806100206000396000f3fe608060405234801561001057600080fd5b50600436106100575760003560e01c8063771602f71461005c578063a391c15b14610078578063b67d77c514610094578063c8a4ac9c146100b0578063de292789146100cc575b600080fd5b610076600480360381019061007191906101c9565b6100ea565b005b610092600480360381019061008d91906101c9565b610100565b005b6100ae60048036038101906100a991906101c9565b610159565b005b6100ca60048036038101906100c591906101c9565b61016f565b005b6100d4610185565b6040516100e19190610218565b60405180910390f35b80826100f69190610262565b6000819055505050565b60008111610143576040517f08c379a000000000000000000000000000000000000000000000000000000000815260040161013a90610319565b60405180910390fd5b808261014f9190610368565b6000819055505050565b80826101659190610399565b6000819055505050565b808261017b91906103cd565b6000819055505050565b60008054905090565b600080fd5b6000819050919050565b6101a681610193565b81146101b157600080fd5b50565b6000813590506101c38161019d565b92915050565b600080604083850312156101e0576101df61018e565b5b60006101ee858286016101b4565b92505060206101ff858286016101b4565b9150509250929050565b61021281610193565b82525050565b600060208201905061022d6000830184610209565b92915050565b7f4e487b7100000000000000000000000000000000000000000000000000000000600052601160045260246000fd5b600061026d82610193565b915061027883610193565b92508282019050808211156102905761028f610233565b5b92915050565b600082825260208201905092915050565b7f546865207365636f6e6420706172616d657465722073686f756c64206265206c60008201527f6172676572207468616e20300000000000000000000000000000000000000000602082015250565b6000610303602c83610296565b915061030e826102a7565b604082019050919050565b60006020820190508181036000830152610332816102f6565b9050919050565b7f4e487b7100000000000000000000000000000000000000000000000000000000600052601260045260246000fd5b600061037382610193565b915061037e83610193565b92508261038e5761038d610339565b5b828204905092915050565b60006103a482610193565b91506103af83610193565b92508282039050818111156103c7576103c6610233565b5b92915050565b60006103d882610193565b91506103e383610193565b92508282026103f181610193565b9150828204841483151761040857610407610233565b5b509291505056fea26469706673582212201169939c28b74deb01760ab34067e920e989ff737a5d5fe0d4b120f536ba52a464736f6c63430008130033",
					"opcodes": "PUSH1 0x80 PUSH1 0x40 MSTORE CALLVALUE DUP1 ISZERO PUSH2 0x10 JUMPI PUSH1 0x0 DUP1 REVERT JUMPDEST POP PUSH2 0x445 DUP1 PUSH2 0x20 PUSH1 0x0 CODECOPY PUSH1 0x0 RETURN INVALID PUSH1 0x80 PUSH1 0x40 MSTORE CALLVALUE DUP1 ISZERO PUSH2 0x10 JUMPI PUSH1 0x0 DUP1 REVERT JUMPDEST POP PUSH1 0x4 CALLDATASIZE LT PUSH2 0x57 JUMPI PUSH1 0x0 CALLDATALOAD PUSH1 0xE0 SHR DUP1 PUSH4 0x771602F7 EQ PUSH2 0x5C JUMPI DUP1 PUSH4 0xA391C15B EQ PUSH2 0x78 JUMPI DUP1 PUSH4 0xB67D77C5 EQ PUSH2 0x94 JUMPI DUP1 PUSH4 0xC8A4AC9C EQ PUSH2 0xB0 JUMPI DUP1 PUSH4 0xDE292789 EQ PUSH2 0xCC JUMPI JUMPDEST PUSH1 0x0 DUP1 REVERT JUMPDEST PUSH2 0x76 PUSH1 0x4 DUP1 CALLDATASIZE SUB DUP2 ADD SWAP1 PUSH2 0x71 SWAP2 SWAP1 PUSH2 0x1C9 JUMP JUMPDEST PUSH2 0xEA JUMP JUMPDEST STOP JUMPDEST PUSH2 0x92 PUSH1 0x4 DUP1 CALLDATASIZE SUB DUP2 ADD SWAP1 PUSH2 0x8D SWAP2 SWAP1 PUSH2 0x1C9 JUMP JUMPDEST PUSH2 0x100 JUMP JUMPDEST STOP JUMPDEST PUSH2 0xAE PUSH1 0x4 DUP1 CALLDATASIZE SUB DUP2 ADD SWAP1 PUSH2 0xA9 SWAP2 SWAP1 PUSH2 0x1C9 JUMP JUMPDEST PUSH2 0x159 JUMP JUMPDEST STOP JUMPDEST PUSH2 0xCA PUSH1 0x4 DUP1 CALLDATASIZE SUB DUP2 ADD SWAP1 PUSH2 0xC5 SWAP2 SWAP1 PUSH2 0x1C9 JUMP JUMPDEST PUSH2 0x16F JUMP JUMPDEST STOP JUMPDEST PUSH2 0xD4 PUSH2 0x185 JUMP JUMPDEST PUSH1 0x40 MLOAD PUSH2 0xE1 SWAP2 SWAP1 PUSH2 0x218 JUMP JUMPDEST PUSH1 0x40 MLOAD DUP1 SWAP2 SUB SWAP1 RETURN JUMPDEST DUP1 DUP3 PUSH2 0xF6 SWAP2 SWAP1 PUSH2 0x262 JUMP JUMPDEST PUSH1 0x0 DUP2 SWAP1 SSTORE POP POP POP JUMP JUMPDEST PUSH1 0x0 DUP2 GT PUSH2 0x143 JUMPI PUSH1 0x40 MLOAD PUSH32 0x8C379A000000000000000000000000000000000000000000000000000000000 DUP2 MSTORE PUSH1 0x4 ADD PUSH2 0x13A SWAP1 PUSH2 0x319 JUMP JUMPDEST PUSH1 0x40 MLOAD DUP1 SWAP2 SUB SWAP1 REVERT JUMPDEST DUP1 DUP3 PUSH2 0x14F SWAP2 SWAP1 PUSH2 0x368 JUMP JUMPDEST PUSH1 0x0 DUP2 SWAP1 SSTORE POP POP POP JUMP JUMPDEST DUP1 DUP3 PUSH2 0x165 SWAP2 SWAP1 PUSH2 0x399 JUMP JUMPDEST PUSH1 0x0 DUP2 SWAP1 SSTORE POP POP POP JUMP JUMPDEST DUP1 DUP3 PUSH2 0x17B SWAP2 SWAP1 PUSH2 0x3CD JUMP JUMPDEST PUSH1 0x0 DUP2 SWAP1 SSTORE POP POP POP JUMP JUMPDEST PUSH1 0x0 DUP1 SLOAD SWAP1 POP SWAP1 JUMP JUMPDEST PUSH1 0x0 DUP1 REVERT JUMPDEST PUSH1 0x0 DUP2 SWAP1 POP SWAP2 SWAP1 POP JUMP JUMPDEST PUSH2 0x1A6 DUP2 PUSH2 0x193 JUMP JUMPDEST DUP2 EQ PUSH2 0x1B1 JUMPI PUSH1 0x0 DUP1 REVERT JUMPDEST POP JUMP JUMPDEST PUSH1 0x0 DUP2 CALLDATALOAD SWAP1 POP PUSH2 0x1C3 DUP2 PUSH2 0x19D JUMP JUMPDEST SWAP3 SWAP2 POP POP JUMP JUMPDEST PUSH1 0x0 DUP1 PUSH1 0x40 DUP4 DUP6 SUB SLT ISZERO PUSH2 0x1E0 JUMPI PUSH2 0x1DF PUSH2 0x18E JUMP JUMPDEST JUMPDEST PUSH1 0x0 PUSH2 0x1EE DUP6 DUP3 DUP7 ADD PUSH2 0x1B4 JUMP JUMPDEST SWAP3 POP POP PUSH1 0x20 PUSH2 0x1FF DUP6 DUP3 DUP7 ADD PUSH2 0x1B4 JUMP JUMPDEST SWAP2 POP POP SWAP3 POP SWAP3 SWAP1 POP JUMP JUMPDEST PUSH2 0x212 DUP2 PUSH2 0x193 JUMP JUMPDEST DUP3 MSTORE POP POP JUMP JUMPDEST PUSH1 0x0 PUSH1 0x20 DUP3 ADD SWAP1 POP PUSH2 0x22D PUSH1 0x0 DUP4 ADD DUP5 PUSH2 0x209 JUMP JUMPDEST SWAP3 SWAP2 POP POP JUMP JUMPDEST PUSH32 0x4E487B7100000000000000000000000000000000000000000000000000000000 PUSH1 0x0 MSTORE PUSH1 0x11 PUSH1 0x4 MSTORE PUSH1 0x24 PUSH1 0x0 REVERT JUMPDEST PUSH1 0x0 PUSH2 0x26D DUP3 PUSH2 0x193 JUMP JUMPDEST SWAP2 POP PUSH2 0x278 DUP4 PUSH2 0x193 JUMP JUMPDEST SWAP3 POP DUP3 DUP3 ADD SWAP1 POP DUP1 DUP3 GT ISZERO PUSH2 0x290 JUMPI PUSH2 0x28F PUSH2 0x233 JUMP JUMPDEST JUMPDEST SWAP3 SWAP2 POP POP JUMP JUMPDEST PUSH1 0x0 DUP3 DUP3 MSTORE PUSH1 0x20 DUP3 ADD SWAP1 POP SWAP3 SWAP2 POP POP JUMP JUMPDEST PUSH32 0x546865207365636F6E6420706172616D657465722073686F756C64206265206C PUSH1 0x0 DUP3 ADD MSTORE PUSH32 0x6172676572207468616E20300000000000000000000000000000000000000000 PUSH1 0x20 DUP3 ADD MSTORE POP JUMP JUMPDEST PUSH1 0x0 PUSH2 0x303 PUSH1 0x2C DUP4 PUSH2 0x296 JUMP JUMPDEST SWAP2 POP PUSH2 0x30E DUP3 PUSH2 0x2A7 JUMP JUMPDEST PUSH1 0x40 DUP3 ADD SWAP1 POP SWAP2 SWAP1 POP JUMP JUMPDEST PUSH1 0x0 PUSH1 0x20 DUP3 ADD SWAP1 POP DUP2 DUP2 SUB PUSH1 0x0 DUP4 ADD MSTORE PUSH2 0x332 DUP2 PUSH2 0x2F6 JUMP JUMPDEST SWAP1 POP SWAP2 SWAP1 POP JUMP JUMPDEST PUSH32 0x4E487B7100000000000000000000000000000000000000000000000000000000 PUSH1 0x0 MSTORE PUSH1 0x12 PUSH1 0x4 MSTORE PUSH1 0x24 PUSH1 0x0 REVERT JUMPDEST PUSH1 0x0 PUSH2 0x373 DUP3 PUSH2 0x193 JUMP JUMPDEST SWAP2 POP PUSH2 0x37E DUP4 PUSH2 0x193 JUMP JUMPDEST SWAP3 POP DUP3 PUSH2 0x38E JUMPI PUSH2 0x38D PUSH2 0x339 JUMP JUMPDEST JUMPDEST DUP3 DUP3 DIV SWAP1 POP SWAP3 SWAP2 POP POP JUMP JUMPDEST PUSH1 0x0 PUSH2 0x3A4 DUP3 PUSH2 0x193 JUMP JUMPDEST SWAP2 POP PUSH2 0x3AF DUP4 PUSH2 0x193 JUMP JUMPDEST SWAP3 POP DUP3 DUP3 SUB SWAP1 POP DUP2 DUP2 GT ISZERO PUSH2 0x3C7 JUMPI PUSH2 0x3C6 PUSH2 0x233 JUMP JUMPDEST JUMPDEST SWAP3 SWAP2 POP POP JUMP JUMPDEST PUSH1 0x0 PUSH2 0x3D8 DUP3 PUSH2 0x193 JUMP JUMPDEST SWAP2 POP PUSH2 0x3E3 DUP4 PUSH2 0x193 JUMP JUMPDEST SWAP3 POP DUP3 DUP3 MUL PUSH2 0x3F1 DUP2 PUSH2 0x193 JUMP JUMPDEST SWAP2 POP DUP3 DUP3 DIV DUP5 EQ DUP4 ISZERO OR PUSH2 0x408 JUMPI PUSH2 0x407 PUSH2 0x233 JUMP JUMPDEST JUMPDEST POP SWAP3 SWAP2 POP POP JUMP INVALID LOG2 PUSH5 0x6970667358 0x22 SLT KECCAK256 GT PUSH10 0x939C28B74DEB01760AB3 BLOCKHASH PUSH8 0xE920E989FF737A5D 0x5F 0xE0 0xD4 0xB1 KECCAK256 CREATE2 CALLDATASIZE 0xBA MSTORE LOG4 PUSH5 0x736F6C6343 STOP ADDMOD SGT STOP CALLER "
				},
				"gasEstimates": {
					"creation": {
						"codeDepositCost": "218600",
						"executionCost": "263",
						"totalCost": "218863"
					},
					"external": {
						"add(uint256,uint256)": "infinite",
						"div(uint256,uint256)": "infinite",
						"getResult()": "2503",
						"mul(uint256,uint256)": "infinite",
						"sub(uint256,uint256)": "infinite"
					}
				},
				"methodIdentifiers": {
					"add(uint256,uint256)": "771602f7",
					"div(uint256,uint256)": "a391c15b",
					"getResult()": "de292789",
					"mul(uint256,uint256)": "c8a4ac9c",
					"sub(uint256,uint256)": "b67d77c5"
				}
			},
			"storageLayout": {
				"storage": [
					{
						"astId": 3,
						"contract": "2-Calculadora.sol:Calculator",
						"label": "c",
						"offset": 0,
						"slot": "0",
						"type": "t_uint256"
					}
				],
				"types": {
					"t_uint256": {
						"encoding": "inplace",
						"label": "uint256",
						"numberOfBytes": "32"
					}
				}
			},
			"userdoc": {
				"kind": "user",
				"methods": {},
				"version": 1
			}
		}
	}
}